{
  "contractName": "HealthRecordVerifier",
  "abi": [
    {
      "inputs": [
        {
          "internalType": "string",
          "name": "recordHash",
          "type": "string"
        }
      ],
      "name": "storeRecordHash",
      "outputs": [],
      "stateMutability": "nonpayable",
      "type": "function"
    },
    {
      "inputs": [
        {
          "internalType": "string",
          "name": "recordHash",
          "type": "string"
        }
      ],
      "name": "verifyRecordHash",
      "outputs": [
        {
          "internalType": "bool",
          "name": "",
          "type": "bool"
        }
      ],
      "stateMutability": "view",
      "type": "function",
      "constant": true
    }
  ],
  "bytecode": "0x608060405234801561000f575f80fd5b5061036d8061001d5f395ff3fe608060405234801561000f575f80fd5b5060043610610034575f3560e01c806334d6d29e14610038578063e0e7702814610068575b5f80fd5b610052600480360381019061004d919061023b565b610084565b60405161005f919061029c565b60405180910390f35b610082600480360381019061007d919061023b565b6100b6565b005b5f80826040516100949190610321565b90815260200160405180910390205f9054906101000a900460ff169050919050565b60015f826040516100c79190610321565b90815260200160405180910390205f6101000a81548160ff02191690831515021790555050565b5f604051905090565b5f80fd5b5f80fd5b5f80fd5b5f80fd5b5f601f19601f8301169050919050565b7f4e487b71000000000000000000000000000000000000000000000000000000005f52604160045260245ffd5b61014d82610107565b810181811067ffffffffffffffff8211171561016c5761016b610117565b5b80604052505050565b5f61017e6100ee565b905061018a8282610144565b919050565b5f67ffffffffffffffff8211156101a9576101a8610117565b5b6101b282610107565b9050602081019050919050565b828183375f83830152505050565b5f6101df6101da8461018f565b610175565b9050828152602081018484840111156101fb576101fa610103565b5b6102068482856101bf565b509392505050565b5f82601f830112610222576102216100ff565b5b81356102328482602086016101cd565b91505092915050565b5f602082840312156102505761024f6100f7565b5b5f82013567ffffffffffffffff81111561026d5761026c6100fb565b5b6102798482850161020e565b91505092915050565b5f8115159050919050565b61029681610282565b82525050565b5f6020820190506102af5f83018461028d565b92915050565b5f81519050919050565b5f81905092915050565b5f5b838110156102e65780820151818401526020810190506102cb565b5f8484015250505050565b5f6102fb826102b5565b61030581856102bf565b93506103158185602086016102c9565b80840191505092915050565b5f61032c82846102f1565b91508190509291505056fea2646970667358221220e23d9ab5824e4cd7bbf60355710d309433e131bc987a15eb771053be124bb57a64736f6c63430008150033",
  "immutableReferences": {},
  "source": "// SPDX-License-Identifier: MIT\npragma solidity ^0.8.0;\n\ncontract HealthRecordVerifier {\n    mapping(string => bool) private records;\n\n    function storeRecordHash(string memory recordHash) public {\n        records[recordHash] = true;\n    }\n\n    function verifyRecordHash(string memory recordHash) public view returns (bool) {\n        return records[recordHash];\n    }\n}\n",
  "sourcePath": "/Users/ikramkhan/HealthRecordDemo/demo1/contracts/HealthRecordVerifier.sol",
  "compiler": {
    "name": "solc",
    "version": "0.8.21+commit.d9974bed.Emscripten.clang"
  },
  "schemaVersion": "3.4.16",
  "updatedAt": "2024-09-27T10:41:08.657Z",
  "networkType": "ethereum",
  "devdoc": {
    "kind": "dev",
    "methods": {},
    "version": 1
  },
  "userdoc": {
    "kind": "user",
    "methods": {},
    "version": 1
  }
}